{
  "contractName": "Grundbuch",
  "abi": [
    {
      "constant": true,
      "inputs": [],
      "name": "addressRegistry2",
      "outputs": [
        {
          "name": "",
          "type": "address"
        }
      ],
      "payable": false,
      "stateMutability": "view",
      "type": "function"
    },
    {
      "constant": true,
      "inputs": [],
      "name": "addressRegistry3",
      "outputs": [
        {
          "name": "",
          "type": "address"
        }
      ],
      "payable": false,
      "stateMutability": "view",
      "type": "function"
    },
    {
      "constant": true,
      "inputs": [],
      "name": "addressRegistry1",
      "outputs": [
        {
          "name": "",
          "type": "address"
        }
      ],
      "payable": false,
      "stateMutability": "view",
      "type": "function"
    },
    {
      "inputs": [],
      "payable": false,
      "stateMutability": "nonpayable",
      "type": "constructor"
    },
    {
      "anonymous": false,
      "inputs": [
        {
          "indexed": true,
          "name": "_id",
          "type": "uint256"
        },
        {
          "indexed": true,
          "name": "_landRegistry",
          "type": "address"
        },
        {
          "indexed": false,
          "name": "_egrid",
          "type": "string"
        },
        {
          "indexed": false,
          "name": "_landOwnerName",
          "type": "string"
        },
        {
          "indexed": false,
          "name": "_linkToPrivateData",
          "type": "string"
        },
        {
          "indexed": false,
          "name": "_privateDataHash",
          "type": "string"
        }
      ],
      "name": "registerLandEvent",
      "type": "event"
    },
    {
      "anonymous": false,
      "inputs": [
        {
          "indexed": true,
          "name": "_landRegistry",
          "type": "address"
        },
        {
          "indexed": false,
          "name": "_egrid",
          "type": "string"
        },
        {
          "indexed": false,
          "name": "_newLandOwnerName",
          "type": "string"
        },
        {
          "indexed": false,
          "name": "_linkToPrivateData",
          "type": "string"
        },
        {
          "indexed": false,
          "name": "_privateDataHash",
          "type": "string"
        }
      ],
      "name": "updateLandEvent",
      "type": "event"
    },
    {
      "constant": false,
      "inputs": [
        {
          "name": "_egrid",
          "type": "string"
        },
        {
          "name": "_landOwnerName",
          "type": "string"
        },
        {
          "name": "_linkToPrivateData",
          "type": "string"
        },
        {
          "name": "_privateDataHash",
          "type": "string"
        }
      ],
      "name": "registerLand",
      "outputs": [],
      "payable": false,
      "stateMutability": "nonpayable",
      "type": "function"
    },
    {
      "constant": true,
      "inputs": [],
      "name": "getNumberOfLandRegistered",
      "outputs": [
        {
          "name": "",
          "type": "uint256"
        }
      ],
      "payable": false,
      "stateMutability": "view",
      "type": "function"
    },
    {
      "constant": true,
      "inputs": [
        {
          "name": "_egrid",
          "type": "string"
        }
      ],
      "name": "getLandInformation",
      "outputs": [
        {
          "name": "",
          "type": "uint256"
        },
        {
          "name": "",
          "type": "address"
        },
        {
          "name": "",
          "type": "string"
        },
        {
          "name": "",
          "type": "string"
        }
      ],
      "payable": false,
      "stateMutability": "view",
      "type": "function"
    },
    {
      "constant": true,
      "inputs": [
        {
          "name": "_id",
          "type": "uint256"
        }
      ],
      "name": "getLandInformationById",
      "outputs": [
        {
          "name": "",
          "type": "uint256"
        },
        {
          "name": "",
          "type": "address"
        },
        {
          "name": "",
          "type": "string"
        },
        {
          "name": "",
          "type": "string"
        }
      ],
      "payable": false,
      "stateMutability": "view",
      "type": "function"
    },
    {
      "constant": true,
      "inputs": [
        {
          "name": "_egrid",
          "type": "string"
        },
        {
          "name": "_secret",
          "type": "string"
        }
      ],
      "name": "getFullLandInformation",
      "outputs": [
        {
          "name": "",
          "type": "uint256"
        },
        {
          "name": "",
          "type": "address"
        },
        {
          "name": "",
          "type": "string"
        },
        {
          "name": "",
          "type": "string"
        },
        {
          "name": "",
          "type": "string"
        },
        {
          "name": "",
          "type": "string"
        }
      ],
      "payable": false,
      "stateMutability": "view",
      "type": "function"
    },
    {
      "constant": true,
      "inputs": [],
      "name": "getRegisteredLandList",
      "outputs": [
        {
          "name": "",
          "type": "uint256[]"
        }
      ],
      "payable": false,
      "stateMutability": "view",
      "type": "function"
    },
    {
      "constant": false,
      "inputs": [
        {
          "name": "_egrid",
          "type": "string"
        },
        {
          "name": "_newLandOwnerName",
          "type": "string"
        },
        {
          "name": "_newLinkToPrivateData",
          "type": "string"
        },
        {
          "name": "_newPrivateDataHash",
          "type": "string"
        }
      ],
      "name": "updateLand",
      "outputs": [],
      "payable": false,
      "stateMutability": "nonpayable",
      "type": "function"
    }
  ],
  "bytecode": "0x60806040523480156200001157600080fd5b50620001186040805190810160405280600681526020017f45475249443100000000000000000000000000000000000000000000000000008152506040805190810160405280600d81526020017f5465737420506572736f6e2031000000000000000000000000000000000000008152506040805190810160405280600f81526020017f7777772e64726f70626f782e636f6d00000000000000000000000000000000008152506040805190810160405280600681526020017f4120484153480000000000000000000000000000000000000000000000000000815250738879668bcc57f0f2964c7eadd4b5ccb99151180d62001ecc640100000000026401000000009004565b6200021e6040805190810160405280600681526020017f45475249443200000000000000000000000000000000000000000000000000008152506040805190810160405280600d81526020017f5465737420506572736f6e2032000000000000000000000000000000000000008152506040805190810160405280600f81526020017f7777772e64726f70626f782e636f6d00000000000000000000000000000000008152506040805190810160405280600681526020017f4120484153480000000000000000000000000000000000000000000000000000815250738879668bcc57f0f2964c7eadd4b5ccb99151180d62001ecc640100000000026401000000009004565b620003246040805190810160405280600681526020017f45475249443300000000000000000000000000000000000000000000000000008152506040805190810160405280600d81526020017f5465737420506572736f6e2033000000000000000000000000000000000000008152506040805190810160405280600f81526020017f7777772e64726f70626f782e636f6d00000000000000000000000000000000008152506040805190810160405280600681526020017f4120484153480000000000000000000000000000000000000000000000000000815250738879668bcc57f0f2964c7eadd4b5ccb99151180d62001ecc640100000000026401000000009004565b6200042a6040805190810160405280600681526020017f45475249443400000000000000000000000000000000000000000000000000008152506040805190810160405280600d81526020017f5465737420506572736f6e2034000000000000000000000000000000000000008152506040805190810160405280600f81526020017f7777772e64726f70626f782e636f6d00000000000000000000000000000000008152506040805190810160405280600681526020017f4120484153480000000000000000000000000000000000000000000000000000815250738879668bcc57f0f2964c7eadd4b5ccb99151180d62001ecc640100000000026401000000009004565b620005306040805190810160405280600681526020017f45475249443500000000000000000000000000000000000000000000000000008152506040805190810160405280600d81526020017f5465737420506572736f6e2035000000000000000000000000000000000000008152506040805190810160405280600f81526020017f7777772e64726f70626f782e636f6d00000000000000000000000000000000008152506040805190810160405280600681526020017f4120484153480000000000000000000000000000000000000000000000000000815250738879668bcc57f0f2964c7eadd4b5ccb99151180d62001ecc640100000000026401000000009004565b620006366040805190810160405280600681526020017f45475249443600000000000000000000000000000000000000000000000000008152506040805190810160405280600d81526020017f5465737420506572736f6e2036000000000000000000000000000000000000008152506040805190810160405280600f81526020017f7777772e64726f70626f782e636f6d00000000000000000000000000000000008152506040805190810160405280600681526020017f4120484153480000000000000000000000000000000000000000000000000000815250738879668bcc57f0f2964c7eadd4b5ccb99151180d62001ecc640100000000026401000000009004565b6200073c6040805190810160405280600681526020017f45475249443700000000000000000000000000000000000000000000000000008152506040805190810160405280600d81526020017f5465737420506572736f6e2037000000000000000000000000000000000000008152506040805190810160405280600f81526020017f7777772e64726f70626f782e636f6d00000000000000000000000000000000008152506040805190810160405280600681526020017f4120484153480000000000000000000000000000000000000000000000000000815250738879668bcc57f0f2964c7eadd4b5ccb99151180d62001ecc640100000000026401000000009004565b620008426040805190810160405280600681526020017f45475249443800000000000000000000000000000000000000000000000000008152506040805190810160405280600d81526020017f5465737420506572736f6e2038000000000000000000000000000000000000008152506040805190810160405280600f81526020017f7777772e64726f70626f782e636f6d00000000000000000000000000000000008152506040805190810160405280600681526020017f4120484153480000000000000000000000000000000000000000000000000000815250738879668bcc57f0f2964c7eadd4b5ccb99151180d62001ecc640100000000026401000000009004565b620009486040805190810160405280600681526020017f45475249443900000000000000000000000000000000000000000000000000008152506040805190810160405280600d81526020017f5465737420506572736f6e2039000000000000000000000000000000000000008152506040805190810160405280600f81526020017f7777772e64726f70626f782e636f6d00000000000000000000000000000000008152506040805190810160405280600681526020017f4120484153480000000000000000000000000000000000000000000000000000815250738879668bcc57f0f2964c7eadd4b5ccb99151180d62001ecc640100000000026401000000009004565b62000a4e6040805190810160405280600781526020017f45475249443130000000000000000000000000000000000000000000000000008152506040805190810160405280600e81526020017f5465737420506572736f6e2031300000000000000000000000000000000000008152506040805190810160405280600f81526020017f7777772e64726f70626f782e636f6d00000000000000000000000000000000008152506040805190810160405280600681526020017f4120484153480000000000000000000000000000000000000000000000000000815250738879668bcc57f0f2964c7eadd4b5ccb99151180d62001ecc640100000000026401000000009004565b62000b546040805190810160405280600781526020017f45475249443131000000000000000000000000000000000000000000000000008152506040805190810160405280600e81526020017f5465737420506572736f6e2031310000000000000000000000000000000000008152506040805190810160405280600f81526020017f7777772e64726f70626f782e636f6d00000000000000000000000000000000008152506040805190810160405280600681526020017f4120484153480000000000000000000000000000000000000000000000000000815250733155ba7b969af228c783195e88a5140bcab7157662001ecc640100000000026401000000009004565b62000c5a6040805190810160405280600781526020017f45475249443132000000000000000000000000000000000000000000000000008152506040805190810160405280600e81526020017f5465737420506572736f6e2031320000000000000000000000000000000000008152506040805190810160405280600f81526020017f7777772e64726f70626f782e636f6d00000000000000000000000000000000008152506040805190810160405280600681526020017f4120484153480000000000000000000000000000000000000000000000000000815250733155ba7b969af228c783195e88a5140bcab7157662001ecc640100000000026401000000009004565b62000d606040805190810160405280600781526020017f45475249443133000000000000000000000000000000000000000000000000008152506040805190810160405280600e81526020017f5465737420506572736f6e2031330000000000000000000000000000000000008152506040805190810160405280600f81526020017f7777772e64726f70626f782e636f6d00000000000000000000000000000000008152506040805190810160405280600681526020017f4120484153480000000000000000000000000000000000000000000000000000815250733155ba7b969af228c783195e88a5140bcab7157662001ecc640100000000026401000000009004565b62000e666040805190810160405280600781526020017f45475249443134000000000000000000000000000000000000000000000000008152506040805190810160405280600e81526020017f5465737420506572736f6e2031340000000000000000000000000000000000008152506040805190810160405280600f81526020017f7777772e64726f70626f782e636f6d00000000000000000000000000000000008152506040805190810160405280600681526020017f4120484153480000000000000000000000000000000000000000000000000000815250733155ba7b969af228c783195e88a5140bcab7157662001ecc640100000000026401000000009004565b62000f6c6040805190810160405280600781526020017f45475249443135000000000000000000000000000000000000000000000000008152506040805190810160405280600e81526020017f5465737420506572736f6e2031350000000000000000000000000000000000008152506040805190810160405280600f81526020017f7777772e64726f70626f782e636f6d00000000000000000000000000000000008152506040805190810160405280600681526020017f4120484153480000000000000000000000000000000000000000000000000000815250733155ba7b969af228c783195e88a5140bcab7157662001ecc640100000000026401000000009004565b620010726040805190810160405280600781526020017f45475249443136000000000000000000000000000000000000000000000000008152506040805190810160405280600e81526020017f5465737420506572736f6e2031360000000000000000000000000000000000008152506040805190810160405280600f81526020017f7777772e64726f70626f782e636f6d00000000000000000000000000000000008152506040805190810160405280600681526020017f4120484153480000000000000000000000000000000000000000000000000000815250733155ba7b969af228c783195e88a5140bcab7157662001ecc640100000000026401000000009004565b620011786040805190810160405280600781526020017f45475249443137000000000000000000000000000000000000000000000000008152506040805190810160405280600e81526020017f5465737420506572736f6e2031370000000000000000000000000000000000008152506040805190810160405280600f81526020017f7777772e64726f70626f782e636f6d00000000000000000000000000000000008152506040805190810160405280600681526020017f4120484153480000000000000000000000000000000000000000000000000000815250733155ba7b969af228c783195e88a5140bcab7157662001ecc640100000000026401000000009004565b6200127e6040805190810160405280600781526020017f45475249443138000000000000000000000000000000000000000000000000008152506040805190810160405280600e81526020017f5465737420506572736f6e2031380000000000000000000000000000000000008152506040805190810160405280600f81526020017f7777772e64726f70626f782e636f6d00000000000000000000000000000000008152506040805190810160405280600681526020017f4120484153480000000000000000000000000000000000000000000000000000815250733155ba7b969af228c783195e88a5140bcab7157662001ecc640100000000026401000000009004565b620013846040805190810160405280600781526020017f45475249443139000000000000000000000000000000000000000000000000008152506040805190810160405280600e81526020017f5465737420506572736f6e2031390000000000000000000000000000000000008152506040805190810160405280600f81526020017f7777772e64726f70626f782e636f6d00000000000000000000000000000000008152506040805190810160405280600681526020017f4120484153480000000000000000000000000000000000000000000000000000815250733155ba7b969af228c783195e88a5140bcab7157662001ecc640100000000026401000000009004565b6200148a6040805190810160405280600781526020017f45475249443230000000000000000000000000000000000000000000000000008152506040805190810160405280600e81526020017f5465737420506572736f6e2032300000000000000000000000000000000000008152506040805190810160405280600f81526020017f7777772e64726f70626f782e636f6d00000000000000000000000000000000008152506040805190810160405280600681526020017f4120484153480000000000000000000000000000000000000000000000000000815250733155ba7b969af228c783195e88a5140bcab7157662001ecc640100000000026401000000009004565b620015906040805190810160405280600781526020017f45475249443231000000000000000000000000000000000000000000000000008152506040805190810160405280600e81526020017f5465737420506572736f6e2032310000000000000000000000000000000000008152506040805190810160405280600f81526020017f7777772e64726f70626f782e636f6d00000000000000000000000000000000008152506040805190810160405280600681526020017f412048415348000000000000000000000000000000000000000000000000000081525073276fe15607dc548738ad6354291741ab3ee8a49262001ecc640100000000026401000000009004565b620016966040805190810160405280600781526020017f45475249443232000000000000000000000000000000000000000000000000008152506040805190810160405280600e81526020017f5465737420506572736f6e2032320000000000000000000000000000000000008152506040805190810160405280600f81526020017f7777772e64726f70626f782e636f6d00000000000000000000000000000000008152506040805190810160405280600681526020017f412048415348000000000000000000000000000000000000000000000000000081525073276fe15607dc548738ad6354291741ab3ee8a49262001ecc640100000000026401000000009004565b6200179c6040805190810160405280600781526020017f45475249443233000000000000000000000000000000000000000000000000008152506040805190810160405280600e81526020017f5465737420506572736f6e2032330000000000000000000000000000000000008152506040805190810160405280600f81526020017f7777772e64726f70626f782e636f6d00000000000000000000000000000000008152506040805190810160405280600681526020017f412048415348000000000000000000000000000000000000000000000000000081525073276fe15607dc548738ad6354291741ab3ee8a49262001ecc640100000000026401000000009004565b620018a26040805190810160405280600781526020017f45475249443234000000000000000000000000000000000000000000000000008152506040805190810160405280600e81526020017f5465737420506572736f6e2032340000000000000000000000000000000000008152506040805190810160405280600f81526020017f7777772e64726f70626f782e636f6d00000000000000000000000000000000008152506040805190810160405280600681526020017f412048415348000000000000000000000000000000000000000000000000000081525073276fe15607dc548738ad6354291741ab3ee8a49262001ecc640100000000026401000000009004565b620019a86040805190810160405280600781526020017f45475249443235000000000000000000000000000000000000000000000000008152506040805190810160405280600e81526020017f5465737420506572736f6e2032350000000000000000000000000000000000008152506040805190810160405280600f81526020017f7777772e64726f70626f782e636f6d00000000000000000000000000000000008152506040805190810160405280600681526020017f412048415348000000000000000000000000000000000000000000000000000081525073276fe15607dc548738ad6354291741ab3ee8a49262001ecc640100000000026401000000009004565b62001aae6040805190810160405280600781526020017f45475249443236000000000000000000000000000000000000000000000000008152506040805190810160405280600e81526020017f5465737420506572736f6e2032360000000000000000000000000000000000008152506040805190810160405280600f81526020017f7777772e64726f70626f782e636f6d00000000000000000000000000000000008152506040805190810160405280600681526020017f412048415348000000000000000000000000000000000000000000000000000081525073276fe15607dc548738ad6354291741ab3ee8a49262001ecc640100000000026401000000009004565b62001bb46040805190810160405280600781526020017f45475249443237000000000000000000000000000000000000000000000000008152506040805190810160405280600e81526020017f5465737420506572736f6e2032370000000000000000000000000000000000008152506040805190810160405280600f81526020017f7777772e64726f70626f782e636f6d00000000000000000000000000000000008152506040805190810160405280600681526020017f412048415348000000000000000000000000000000000000000000000000000081525073276fe15607dc548738ad6354291741ab3ee8a49262001ecc640100000000026401000000009004565b62001cba6040805190810160405280600781526020017f45475249443238000000000000000000000000000000000000000000000000008152506040805190810160405280600e81526020017f5465737420506572736f6e2032380000000000000000000000000000000000008152506040805190810160405280600f81526020017f7777772e64726f70626f782e636f6d00000000000000000000000000000000008152506040805190810160405280600681526020017f412048415348000000000000000000000000000000000000000000000000000081525073276fe15607dc548738ad6354291741ab3ee8a49262001ecc640100000000026401000000009004565b62001dc06040805190810160405280600781526020017f45475249443239000000000000000000000000000000000000000000000000008152506040805190810160405280600e81526020017f5465737420506572736f6e2032390000000000000000000000000000000000008152506040805190810160405280600f81526020017f7777772e64726f70626f782e636f6d00000000000000000000000000000000008152506040805190810160405280600681526020017f412048415348000000000000000000000000000000000000000000000000000081525073276fe15607dc548738ad6354291741ab3ee8a49262001ecc640100000000026401000000009004565b62001ec66040805190810160405280600781526020017f45475249443330000000000000000000000000000000000000000000000000008152506040805190810160405280600e81526020017f5465737420506572736f6e2033300000000000000000000000000000000000008152506040805190810160405280600f81526020017f7777772e64726f70626f782e636f6d00000000000000000000000000000000008152506040805190810160405280600681526020017f412048415348000000000000000000000000000000000000000000000000000081525073276fe15607dc548738ad6354291741ab3ee8a49262001ecc640100000000026401000000009004565b620020be565b60c06040519081016040528060015481526020018273ffffffffffffffffffffffffffffffffffffffff1681526020018681526020018581526020018481526020018381525060008060015481526020019081526020016000206000820151816000015560208201518160010160006101000a81548173ffffffffffffffffffffffffffffffffffffffff021916908373ffffffffffffffffffffffffffffffffffffffff160217905550604082015181600201908051906020019062001f959291906200200f565b50606082015181600301908051906020019062001fb49291906200200f565b50608082015181600401908051906020019062001fd39291906200200f565b5060a082015181600501908051906020019062001ff29291906200200f565b509050506001600081548092919060010191905055505050505050565b828054600181600116156101000203166002900490600052602060002090601f016020900481019282601f106200205257805160ff191683800117855562002083565b8280016001018555821562002083579182015b828111156200208257825182559160200191906001019062002065565b5b50905062002092919062002096565b5090565b620020bb91905b80821115620020b75760008160009055506001016200209d565b5090565b90565b611c9780620020ce6000396000f3006080604052600436106100a4576000357c0100000000000000000000000000000000000000000000000000000000900463ffffffff1680631851f430146100a95780632dc74179146101e45780632fdbde281461033057806374e5efda146103875780639b17533c1461062d578063d0dc2a5614610699578063d1ad6234146106f0578063d9a9ee451461071b578063e11e5568146108a3578063e8d011af146108fa575b600080fd5b3480156100b557600080fd5b506101e2600480360381019080803590602001908201803590602001908080601f0160208091040260200160405190810160405280939291908181526020018383808284378201915050505050509192919290803590602001908201803590602001908080601f0160208091040260200160405190810160405280939291908181526020018383808284378201915050505050509192919290803590602001908201803590602001908080601f0160208091040260200160405190810160405280939291908181526020018383808284378201915050505050509192919290803590602001908201803590602001908080601f0160208091040260200160405190810160405280939291908181526020018383808284378201915050505050509192919290505050610a35565b005b3480156101f057600080fd5b5061020f60048036038101908080359060200190929190505050610c98565b604051808581526020018473ffffffffffffffffffffffffffffffffffffffff1673ffffffffffffffffffffffffffffffffffffffff1681526020018060200180602001838103835285818151815260200191508051906020019080838360005b8381101561028b578082015181840152602081019050610270565b50505050905090810190601f1680156102b85780820380516001836020036101000a031916815260200191505b50838103825284818151815260200191508051906020019080838360005b838110156102f15780820151818401526020810190506102d6565b50505050905090810190601f16801561031e5780820380516001836020036101000a031916815260200191505b50965050505050505060405180910390f35b34801561033c57600080fd5b50610345610e5b565b604051808273ffffffffffffffffffffffffffffffffffffffff1673ffffffffffffffffffffffffffffffffffffffff16815260200191505060405180910390f35b34801561039357600080fd5b50610434600480360381019080803590602001908201803590602001908080601f0160208091040260200160405190810160405280939291908181526020018383808284378201915050505050509192919290803590602001908201803590602001908080601f0160208091040260200160405190810160405280939291908181526020018383808284378201915050505050509192919290505050610e73565b604051808781526020018673ffffffffffffffffffffffffffffffffffffffff1673ffffffffffffffffffffffffffffffffffffffff16815260200180602001806020018060200180602001858103855289818151815260200191508051906020019080838360005b838110156104b857808201518184015260208101905061049d565b50505050905090810190601f1680156104e55780820380516001836020036101000a031916815260200191505b50858103845288818151815260200191508051906020019080838360005b8381101561051e578082015181840152602081019050610503565b50505050905090810190601f16801561054b5780820380516001836020036101000a031916815260200191505b50858103835287818151815260200191508051906020019080838360005b83811015610584578082015181840152602081019050610569565b50505050905090810190601f1680156105b15780820380516001836020036101000a031916815260200191505b50858103825286818151815260200191508051906020019080838360005b838110156105ea5780820151818401526020810190506105cf565b50505050905090810190601f1680156106175780820380516001836020036101000a031916815260200191505b509a505050505050505050505060405180910390f35b34801561063957600080fd5b506106426113c4565b6040518080602001828103825283818151815260200191508051906020019060200280838360005b8381101561068557808201518184015260208101905061066a565b505050509050019250505060405180910390f35b3480156106a557600080fd5b506106ae6114a7565b604051808273ffffffffffffffffffffffffffffffffffffffff1673ffffffffffffffffffffffffffffffffffffffff16815260200191505060405180910390f35b3480156106fc57600080fd5b506107056114bf565b6040518082815260200191505060405180910390f35b34801561072757600080fd5b50610782600480360381019080803590602001908201803590602001908080601f01602080910402602001604051908101604052809392919081815260200183838082843782019150505050505091929192905050506114c9565b604051808581526020018473ffffffffffffffffffffffffffffffffffffffff1673ffffffffffffffffffffffffffffffffffffffff1681526020018060200180602001838103835285818151815260200191508051906020019080838360005b838110156107fe5780820151818401526020810190506107e3565b50505050905090810190601f16801561082b5780820380516001836020036101000a031916815260200191505b50838103825284818151815260200191508051906020019080838360005b83811015610864578082015181840152602081019050610849565b50505050905090810190601f1680156108915780820380516001836020036101000a031916815260200191505b50965050505050505060405180910390f35b3480156108af57600080fd5b506108b86115f9565b604051808273ffffffffffffffffffffffffffffffffffffffff1673ffffffffffffffffffffffffffffffffffffffff16815260200191505060405180910390f35b34801561090657600080fd5b50610a33600480360381019080803590602001908201803590602001908080601f0160208091040260200160405190810160405280939291908181526020018383808284378201915050505050509192919290803590602001908201803590602001908080601f0160208091040260200160405190810160405280939291908181526020018383808284378201915050505050509192919290803590602001908201803590602001908080601f0160208091040260200160405190810160405280939291908181526020018383808284378201915050505050509192919290803590602001908201803590602001908080601f0160208091040260200160405190810160405280939291908181526020018383808284378201915050505050509192919290505050611611565b005b600080610a41866114c9565b90919250905050809150508173ffffffffffffffffffffffffffffffffffffffff168173ffffffffffffffffffffffffffffffffffffffff16141515610a8657600080fd5b610a938686868633611a0b565b3373ffffffffffffffffffffffffffffffffffffffff166001547f3f30c14c5da5afb9486dfc1876ba3ad91ff88b2d03cf8c2ea7f7e97d4371dc0b888888886040518080602001806020018060200180602001858103855289818151815260200191508051906020019080838360005b83811015610b1e578082015181840152602081019050610b03565b50505050905090810190601f168015610b4b5780820380516001836020036101000a031916815260200191505b50858103845288818151815260200191508051906020019080838360005b83811015610b84578082015181840152602081019050610b69565b50505050905090810190601f168015610bb15780820380516001836020036101000a031916815260200191505b50858103835287818151815260200191508051906020019080838360005b83811015610bea578082015181840152602081019050610bcf565b50505050905090810190601f168015610c175780820380516001836020036101000a031916815260200191505b50858103825286818151815260200191508051906020019080838360005b83811015610c50578082015181840152602081019050610c35565b50505050905090810190601f168015610c7d5780820380516001836020036101000a031916815260200191505b509850505050505050505060405180910390a3505050505050565b6000806060806000808681526020019081526020016000206000015460008087815260200190815260200160002060010160009054906101000a900473ffffffffffffffffffffffffffffffffffffffff16600080888152602001908152602001600020600201600080898152602001908152602001600020600301818054600181600116156101000203166002900480601f016020809104026020016040519081016040528092919081815260200182805460018160011615610100020316600290048015610da95780601f10610d7e57610100808354040283529160200191610da9565b820191906000526020600020905b815481529060010190602001808311610d8c57829003601f168201915b50505050509150808054600181600116156101000203166002900480601f016020809104026020016040519081016040528092919081815260200182805460018160011615610100020316600290048015610e455780601f10610e1a57610100808354040283529160200191610e45565b820191906000526020600020905b815481529060010190602001808311610e2857829003601f168201915b5050505050905093509350935093509193509193565b733155ba7b969af228c783195e88a5140bcab7157681565b60008060608060608060006040805190810160405280600a81526020017f7365637265745f313233000000000000000000000000000000000000000000008152506040518082805190602001908083835b602083101515610ee95780518252602082019150602081019050602083039250610ec4565b6001836020036101000a038019825116818451168082178552505050505050905001915050604051809103902060001916886040518082805190602001908083835b602083101515610f505780518252602082019150602081019050602083039250610f2b565b6001836020036101000a038019825116818451168082178552505050505050905001915050604051809103902060001916141515610f8d57600080fd5b600090505b6001548110156113b857886040518082805190602001908083835b602083101515610fd25780518252602082019150602081019050602083039250610fad565b6001836020036101000a03801982511681845116808217855250505050505090500191505060405180910390206000191660008083815260200190815260200160002060020160405180828054600181600116156101000203166002900480156110735780601f10611051576101008083540402835291820191611073565b820191906000526020600020905b81548152906001019060200180831161105f575b505091505060405180910390206000191614156113ab576000808281526020019081526020016000206000015460008083815260200190815260200160002060010160009054906101000a900473ffffffffffffffffffffffffffffffffffffffff16600080848152602001908152602001600020600201600080858152602001908152602001600020600301600080868152602001908152602001600020600401600080878152602001908152602001600020600501838054600181600116156101000203166002900480601f0160208091040260200160405190810160405280929190818152602001828054600181600116156101000203166002900480156111bf5780601f10611194576101008083540402835291602001916111bf565b820191906000526020600020905b8154815290600101906020018083116111a257829003601f168201915b50505050509350828054600181600116156101000203166002900480601f01602080910402602001604051908101604052809291908181526020018280546001816001161561010002031660029004801561125b5780601f106112305761010080835404028352916020019161125b565b820191906000526020600020905b81548152906001019060200180831161123e57829003601f168201915b50505050509250818054600181600116156101000203166002900480601f0160208091040260200160405190810160405280929190818152602001828054600181600116156101000203166002900480156112f75780601f106112cc576101008083540402835291602001916112f7565b820191906000526020600020905b8154815290600101906020018083116112da57829003601f168201915b50505050509150808054600181600116156101000203166002900480601f0160208091040260200160405190810160405280929190818152602001828054600181600116156101000203166002900480156113935780601f1061136857610100808354040283529160200191611393565b820191906000526020600020905b81548152906001019060200180831161137657829003601f168201915b505050505090509650965096509650965096506113b9565b8080600101915050610f92565b5b509295509295509295565b6060806000806001541115156113d957600080fd5b6000600154141561141c5760006040519080825280602002602001820160405280156114145781602001602082028038833980820191505090505b5092506114a2565b60015460405190808252806020026020018201604052801561144d5781602001602082028038833980820191505090505b509150600090505b60015481101561149e5760008082815260200190815260200160002060000154828281518110151561148357fe5b90602001906020020181815250508080600101915050611455565b8192505b505090565b73276fe15607dc548738ad6354291741ab3ee8a49281565b6000600154905090565b60008060608060008090505b6001548110156115f057856040518082805190602001908083835b60208310151561151557805182526020820191506020810190506020830392506114f0565b6001836020036101000a03801982511681845116808217855250505050505090500191505060405180910390206000191660008083815260200190815260200160002060020160405180828054600181600116156101000203166002900480156115b65780601f106115945761010080835404028352918201916115b6565b820191906000526020600020905b8154815290600101906020018083116115a2575b505091505060405180910390206000191614156115e3576115d681610c98565b94509450945094506115f1565b80806001019150506114d5565b5b509193509193565b738879668bcc57f0f2964c7eadd4b5ccb99151180d81565b60008090505b60015481101561180a57846040518082805190602001908083835b6020831015156116575780518252602082019150602081019050602083039250611632565b6001836020036101000a03801982511681845116808217855250505050505090500191505060405180910390206000191660008083815260200190815260200160002060020160405180828054600181600116156101000203166002900480156116f85780601f106116d65761010080835404028352918201916116f8565b820191906000526020600020905b8154815290600101906020018083116116e4575b505091505060405180910390206000191614156117fd573373ffffffffffffffffffffffffffffffffffffffff1660008083815260200190815260200160002060010160009054906101000a900473ffffffffffffffffffffffffffffffffffffffff1673ffffffffffffffffffffffffffffffffffffffff1614151561177e57600080fd5b8360008083815260200190815260200160002060030190805190602001906117a7929190611b46565b508260008083815260200190815260200160002060040190805190602001906117d1929190611b46565b508160008083815260200190815260200160002060050190805190602001906117fb929190611b46565b505b8080600101915050611617565b3373ffffffffffffffffffffffffffffffffffffffff167f39668ca3fe9ce64b1b9697710321b4dd2c9d3459945e393d632aa2d4a34ef2fb868686866040518080602001806020018060200180602001858103855289818151815260200191508051906020019080838360005b83811015611892578082015181840152602081019050611877565b50505050905090810190601f1680156118bf5780820380516001836020036101000a031916815260200191505b50858103845288818151815260200191508051906020019080838360005b838110156118f85780820151818401526020810190506118dd565b50505050905090810190601f1680156119255780820380516001836020036101000a031916815260200191505b50858103835287818151815260200191508051906020019080838360005b8381101561195e578082015181840152602081019050611943565b50505050905090810190601f16801561198b5780820380516001836020036101000a031916815260200191505b50858103825286818151815260200191508051906020019080838360005b838110156119c45780820151818401526020810190506119a9565b50505050905090810190601f1680156119f15780820380516001836020036101000a031916815260200191505b509850505050505050505060405180910390a25050505050565b60c06040519081016040528060015481526020018273ffffffffffffffffffffffffffffffffffffffff1681526020018681526020018581526020018481526020018381525060008060015481526020019081526020016000206000820151816000015560208201518160010160006101000a81548173ffffffffffffffffffffffffffffffffffffffff021916908373ffffffffffffffffffffffffffffffffffffffff1602179055506040820151816002019080519060200190611ad2929190611bc6565b506060820151816003019080519060200190611aef929190611bc6565b506080820151816004019080519060200190611b0c929190611bc6565b5060a0820151816005019080519060200190611b29929190611bc6565b509050506001600081548092919060010191905055505050505050565b828054600181600116156101000203166002900490600052602060002090601f016020900481019282601f10611b8757805160ff1916838001178555611bb5565b82800160010185558215611bb5579182015b82811115611bb4578251825591602001919060010190611b99565b5b509050611bc29190611c46565b5090565b828054600181600116156101000203166002900490600052602060002090601f016020900481019282601f10611c0757805160ff1916838001178555611c35565b82800160010185558215611c35579182015b82811115611c34578251825591602001919060010190611c19565b5b509050611c429190611c46565b5090565b611c6891905b80821115611c64576000816000905550600101611c4c565b5090565b905600a165627a7a72305820cbe37093f7134ff574d3ad0ffda259acbf8a8e209070bc0544e9bf7e64531b160029",
  "source": "pragma solidity ^0.4.11;\n\ncontract Grundbuch {\n  address constant public addressRegistry1 = 0x8879668bCC57F0F2964c7eaDd4B5cCB99151180D;\n  address constant public addressRegistry2 = 0x3155bA7b969aF228c783195E88A5140BcAB71576;\n  address constant public addressRegistry3 = 0x276FE15607DC548738ad6354291741ab3Ee8a492;\n  string constant private master_key = \"secret_123\";\n\n  struct Land {\n    uint id;\n    address landRegistry;\n    string egrid;\n    string landOwnerName;\n    string linkToPrivateData;\n    // to ensure that the remote data has not been changed\n    string privateDataHash;\n  }\n\n  // State variables\n  // declared private so only getters will return data (since there is private data in the list)\n  mapping(uint => Land) private landList;\n  uint landListCounter;\n\n    // Events\n  event registerLandEvent (\n    uint    indexed _id,\n    address indexed _landRegistry,\n    string  _egrid,\n    string  _landOwnerName,\n    string _linkToPrivateData,\n    string _privateDataHash\n  );\n\n  event updateLandEvent (\n    address indexed _landRegistry,\n    string _egrid,\n    string _newLandOwnerName,\n    string _linkToPrivateData,\n    string _privateDataHash\n  );\n\n  constructor() public {\n    // default land for amt 1:\n    registerLand(\"EGRID1\", \"Test Person 1\", \"www.dropbox.com\", \"A HASH\", addressRegistry1);\n    registerLand(\"EGRID2\", \"Test Person 2\", \"www.dropbox.com\", \"A HASH\", addressRegistry1);\n    registerLand(\"EGRID3\", \"Test Person 3\", \"www.dropbox.com\", \"A HASH\", addressRegistry1);\n    registerLand(\"EGRID4\", \"Test Person 4\", \"www.dropbox.com\", \"A HASH\", addressRegistry1);\n    registerLand(\"EGRID5\", \"Test Person 5\", \"www.dropbox.com\", \"A HASH\", addressRegistry1);\n    registerLand(\"EGRID6\", \"Test Person 6\", \"www.dropbox.com\", \"A HASH\", addressRegistry1);\n    registerLand(\"EGRID7\", \"Test Person 7\", \"www.dropbox.com\", \"A HASH\", addressRegistry1);\n    registerLand(\"EGRID8\", \"Test Person 8\", \"www.dropbox.com\", \"A HASH\", addressRegistry1);\n    registerLand(\"EGRID9\", \"Test Person 9\", \"www.dropbox.com\", \"A HASH\", addressRegistry1);\n    registerLand(\"EGRID10\", \"Test Person 10\", \"www.dropbox.com\", \"A HASH\", addressRegistry1);\n\n    // default land for amt 2:\n    registerLand(\"EGRID11\", \"Test Person 11\", \"www.dropbox.com\", \"A HASH\", addressRegistry2);\n    registerLand(\"EGRID12\", \"Test Person 12\", \"www.dropbox.com\", \"A HASH\", addressRegistry2);\n    registerLand(\"EGRID13\", \"Test Person 13\", \"www.dropbox.com\", \"A HASH\", addressRegistry2);\n    registerLand(\"EGRID14\", \"Test Person 14\", \"www.dropbox.com\", \"A HASH\", addressRegistry2);\n    registerLand(\"EGRID15\", \"Test Person 15\", \"www.dropbox.com\", \"A HASH\", addressRegistry2);\n    registerLand(\"EGRID16\", \"Test Person 16\", \"www.dropbox.com\", \"A HASH\", addressRegistry2);\n    registerLand(\"EGRID17\", \"Test Person 17\", \"www.dropbox.com\", \"A HASH\", addressRegistry2);\n    registerLand(\"EGRID18\", \"Test Person 18\", \"www.dropbox.com\", \"A HASH\", addressRegistry2);\n    registerLand(\"EGRID19\", \"Test Person 19\", \"www.dropbox.com\", \"A HASH\", addressRegistry2);\n    registerLand(\"EGRID20\", \"Test Person 20\", \"www.dropbox.com\", \"A HASH\", addressRegistry2);\n\n    // default land for amt 3:\n    registerLand(\"EGRID21\", \"Test Person 21\", \"www.dropbox.com\", \"A HASH\", addressRegistry3);\n    registerLand(\"EGRID22\", \"Test Person 22\", \"www.dropbox.com\", \"A HASH\", addressRegistry3);\n    registerLand(\"EGRID23\", \"Test Person 23\", \"www.dropbox.com\", \"A HASH\", addressRegistry3);\n    registerLand(\"EGRID24\", \"Test Person 24\", \"www.dropbox.com\", \"A HASH\", addressRegistry3);\n    registerLand(\"EGRID25\", \"Test Person 25\", \"www.dropbox.com\", \"A HASH\", addressRegistry3);\n    registerLand(\"EGRID26\", \"Test Person 26\", \"www.dropbox.com\", \"A HASH\", addressRegistry3);\n    registerLand(\"EGRID27\", \"Test Person 27\", \"www.dropbox.com\", \"A HASH\", addressRegistry3);\n    registerLand(\"EGRID28\", \"Test Person 28\", \"www.dropbox.com\", \"A HASH\", addressRegistry3);\n    registerLand(\"EGRID29\", \"Test Person 29\", \"www.dropbox.com\", \"A HASH\", addressRegistry3);\n    registerLand(\"EGRID30\", \"Test Person 30\", \"www.dropbox.com\", \"A HASH\", addressRegistry3);\n  }\n\n  // register land with address (private)\n  function registerLand(string _egrid, string _landOwnerName, string _linkToPrivateData, string _privateDataHash, address sender) private {\n    landList[landListCounter] = Land(landListCounter, sender, _egrid, _landOwnerName, _linkToPrivateData, _privateDataHash);\n    landListCounter++;\n  }\n\n  // register land\n  function registerLand(string _egrid, string _landOwnerName, string _linkToPrivateData, string _privateDataHash) public {\n    // initialize an empty address\n    address NULL_ADDRESS;\n    // get variable to store existing address\n    address existingAddress;\n    // deconstructing the tuple from getLandInformation, mapping only the address field\n    ( , existingAddress,,) = getLandInformation(_egrid);\n\n    // the existingAddress should be empty in order to register a new one with the provided egrid\n    require(existingAddress == NULL_ADDRESS);\n\n    // store the Land title\n    registerLand(_egrid, _landOwnerName, _linkToPrivateData, _privateDataHash, msg.sender);\n\n    // trigger the event\n    emit registerLandEvent(landListCounter, msg.sender, _egrid, _landOwnerName, _linkToPrivateData, _privateDataHash);\n  }\n\n  // fetch the number of Land registered in the contract\n  function getNumberOfLandRegistered() public view returns (uint) {\n    return landListCounter;\n  }\n\n  // returns land information\n  function getLandInformation(string _egrid) public view returns(uint, address, string, string) {\n    for (uint i = 0; i < landListCounter; i++) {\n      if(keccak256(landList[i].egrid) == keccak256(_egrid)) {\n        return getLandInformationById(i);\n      }\n    }\n  }\n\n  // returns land information by id\n  function getLandInformationById(uint _id) public view returns(uint, address, string, string) {\n    return (landList[_id].id, landList[_id].landRegistry, landList[_id].egrid, landList[_id].landOwnerName);\n  }\n\n  // returns full land information\n  function getFullLandInformation(string _egrid, string _secret) public view returns(uint, address, string, string, string, string) {\n    require(keccak256(_secret) == keccak256(master_key));\n    \n    for (uint i = 0; i < landListCounter; i++) {\n      if(keccak256(landList[i].egrid) == keccak256(_egrid)) {\n        return (landList[i].id, landList[i].landRegistry, landList[i].egrid, landList[i].landOwnerName, landList[i].linkToPrivateData, landList[i].privateDataHash);\n      }\n    }\n  }\n\n  // fetch and returns all land IDs getNumberOfLandRegistered\n  function getRegisteredLandList() public view returns (uint[]) {\n    // we check whether there is at least one registered Land\n    require(landListCounter > 0);\n\n    if (landListCounter == 0) {\n      return new uint[](0);\n    }\n\n    //prepare output\n    uint[] memory registeredLandList = new uint[] (landListCounter);\n    for (uint i = 0; i < landListCounter; i++) {\n      registeredLandList[i] = landList[i].id;\n    }\n\n    return (registeredLandList);\n  }\n\n  // update land\n  function updateLand(string _egrid, string _newLandOwnerName, string _newLinkToPrivateData, string _newPrivateDataHash) public {\n\n    // check if the land registry is entitled to update Land\n    for (uint i = 0; i < landListCounter; i++) {\n      // string compare\n      if(keccak256(landList[i].egrid) == keccak256(_egrid)) {\n        require(landList[i].landRegistry == msg.sender);\n        landList[i].landOwnerName = _newLandOwnerName;\n        landList[i].linkToPrivateData = _newLinkToPrivateData;\n        landList[i].privateDataHash = _newPrivateDataHash;\n      }\n    }\n\n    // trigger the event\n    emit updateLandEvent(msg.sender, _egrid, _newLandOwnerName, _newLinkToPrivateData, _newPrivateDataHash);\n  }\n\n}\n",
  "sourcePath": "C:\\Users\\PStaeheli\\Desktop\\math_18_final\\contracts\\Grundbuch.sol",
  "compiler": {
    "name": "solc",
    "version": "0.4.23+commit.124ca40d.Emscripten.clang"
  },
  "schemaVersion": "2.0.0",
  "updatedAt": "2018-05-18T10:54:18.803Z"
}